:020000040000FA
:060000000A128A110C280F
:10000800FE00030EF6000A08F7000A128A11992D5D
:100018000A128A110F28F801F901FA01FB01FC0103
:10002800FD0183120313AC01AD01AE01AF01B001B4
:1000380083010A128A113E2F023083120313AA0089
:100048000430A900B930A800A80B2828A90B282833
:10005800AA0B28282F28283083120313A1008430E4
:10006800A2000A128A118C270A128A1102308312FE
:100078000313AA000430A900B930A800A80B42282D
:10008800A90B4228AA0B422849286430831203137B
:10009800A1008430A2000A128A118C270A128A1140
:1000A800023083120313AA000430A900B930A80053
:1000B800A80B5C28A90B5C28AA0B5C286328D23003
:1000C80083120313A1008430A2000A128A118C271C
:1000D8000A128A11023083120313AA000430A900FD
:1000E800B930A800A80B7628A90B7628AA0B762881
:1000F8007D28993083120313A1008430A2000A12CC
:100108008A118C270A128A11831203138C1E8D28D8
:100118008E28882831301A06031D93289428782AB7
:10012800473083120313A1008430A2000A128A11F7
:100138008C270A128A11023083120313AA00043092
:10014800A900B930A800A80BA728A90BA728AA0BB3
:10015800A728AE28AC3083120313A1008430A20074
:100168000A128A118C270A128A1102308312031389
:10017800AA000430A900B930A800A80BC128A90B0F
:10018800C128AA0BC128C828BF3083120313A100B5
:100198008430A2000A128A118C270A128A110230AE
:1001A80083120313AA000430A900B930A800A80BD1
:1001B800DB28A90BDB28AA0BDB28E2289030831266
:1001C8000313A1008530A2000A128A118C270A1293
:1001D8008A11831203138C1EF228F328ED2831307C
:1001E8001A06031DF828F9287329F530831203131A
:1001F800A1008430A2000A128A118C270A128A11DF
:10020800023083120313AA000430A900B930A800F1
:10021800A80B0C29A90B0C29AA0B0C291329163099
:1002280083120313A1008530A2000A128A118C27B9
:100238000A128A11023083120313AA000430A9009B
:10024800B930A800A80B2629A90B2629AA0B26290C
:100258002D29063083120313A1008530A2000A124B
:100268008A118C270A128A11023083120313AA00FA
:100278000430A900B930A800A80B4029A90B4029CF
:10028800AA0B402947293E3083120313A100853069
:10029800A2000A128A118C270A128A1183120313E8
:1002A8008C1E57295829522961301A06031D5D29C9
:1002B8005E296129FA309500732962301A06031DF8
:1002C800662967296A297D309500732963301A06E3
:1002D800031D6F2970297329BC30950073293230AA
:1002E8001A06031D78297929F3298030831203130C
:1002F800A1008430A2000A128A118C270A128A11DE
:10030800023083120313AA000430A900B930A800F0
:10031800A80B8C29A90B8C29AA0B8C29932924308A
:1003280083120313A1008530A2000A128A118C27B8
:100338000A128A11023083120313AA000430A9009A
:10034800B930A800A80BA629A90BA629AA0BA6298B
:10035800AD29643083120313A1008530A2000A126C
:100368008A118C270A128A11023083120313AA00F9
:100378000430A900B930A800A80BC029A90BC029CE
:10038800AA0BC029C7293E3083120313A100853068
:10039800A2000A128A118C270A128A1183120313E7
:1003A8008C1ED729D829D22961301A06031DDD29C8
:1003B800DE29E129FA309B00F32962301A06031D71
:1003C800E629E729EA297D309B00F32963301A06DC
:1003D800031DEF29F029F329BC309B00F3293330A2
:1003E8001A06031DF829F929612BE4308312031337
:1003F800A1008430A2000A128A118C270A128A11DD
:10040800023083120313AA000430A900B930A800EF
:10041800A80B0C2AA90B0C2AAA0B0C2A132A313078
:1004280083120313A1008530A2000A128A118C27B7
:100438000A128A11023083120313AA000430A90099
:10044800B930A800A80B262AA90B262AAA0B262A07
:100458002D2A703083120313A1008530A2000A12DE
:100468008A118C270A128A11023083120313AA00F8
:100478000430A900B930A800A80B402AA90B402ACB
:10048800AA0B402A472A583083120313A10085304B
:10049800A2000A128A118C270A128A1183120313E6
:1004A8008C1E572A582A522A61301A06031D5D2AC3
:1004B8005E2A632AFF30AE000030AF00612B623045
:1004C8001A06031D682A692A6C2AAE01AF01612B3E
:1004D80063301A06031D712A722A772A7F30AE000C
:1004E8000030AF00612B612B32301A06031D7D2AC4
:1004F8007E2A3E2B063083120313AA001330A9006C
:10050800AD30A800A80B862AA90B862AAA0B862A32
:10051800003083120313A1008430A2000A128A114A
:100528008C270A128A11023083120313AA0004309E
:10053800A900B930A800A80B9F2AA90B9F2AAA0BCB
:100548009F2AA62A4B3083120313A1008530A200EC
:100558000A128A118C270A128A1102308312031395
:10056800AA000430A900B930A800A80BB92AA90B21
:10057800B92AAA0BB92AC02A7C3083120313A10016
:100588008530A2000A128A118C270A128A11831256
:1005980003138C1ED02AD12ACB2A61301A06031DD8
:1005A800D62AD72A002B86151030A8002808A000C4
:1005B8007D080A128A11B4270A128A11113083128F
:1005C8000313A8002808A0007C080A128A11B4277F
:1005D8000A128A110B3083120313AA002630A900CD
:1005E8005D30A800A80BF62AA90BF62AAA0BF62A52
:1005F800831203138611612B62301A06031D052B23
:10060800062B772A1F10061610300A128A11622349
:100618000A128A1183120313A8002808FB0011305C
:100628000A128A1162230A128A1183120313A8007C
:100638002808FA007B08A8000310280C7D3E9500C6
:100648007A08A8000310280C7D3E9B001A308312FC
:100658000313AA005E30A9006D30A800A80B322B46
:10066800A90B322BAA0B322B392B831203131F141D
:100678000612612B33301A06031D432B442B612BC2
:10068800063083120313AA001330A900AD30A80066
:10069800A80B4C2BA90B4C2BAA0B4C2B8730831285
:1006A8000313A1008530A2000A128A118C270A12AE
:1006B8008A11F801831203138612080083120313A8
:1006C800A1002108831203178D00831603178C13CA
:1006D8000C14831203170C0883120313A0002008BC
:1006E800A20022080800FF1B812B83137F188317A1
:1006F8000008840A0319FF0A08007F087F398A0066
:100708000408840A0319FF0A8200F10071088312A1
:1007180003178D00831603178C130C148312031709
:0C0728000C08F0007008F20072080800D5
:100800000D340D345134753465342034643465341A
:10081000733465346134203468346134633465344E
:100820007234203465346E3420346C3461342034B6
:100830006D3465346D346F3472346934613420340E
:1008400045344534503452344F344D343A34003406
:100850000D34513475346534203461346334633479
:1008600069346F346E3420346434653473346534E1
:100870006134203465346A346534633475347434D7
:10088000613472343F343A3420340D3400340D3442
:100890000D3451347534653420346D346F34743410
:1008A0006F347234203464346534733465346134A5
:1008B000203463346F346E34743472346F346C3477
:1008C000613472343A3400342034203420342034FB
:1008D000283431342934203443346F346E34743442
:1008E00072346F346C346134723420346D346F344C
:1008F00074346F3472346534733420340D340034FE
:100900000D340D34513475346534203461346C3415
:1009100074347534723461342034643465346C3426
:10092000203461346C34653472346F346E343A344C
:100930000034203420342034203428343334293413
:1009400020345434653472346D3469346E34613417
:10095000723420340D3400340D340D3420342834F6
:100960003134293453346534723476346F346D3411
:100970006F3474346F3472342034313400340D34B5
:100980000D342034283432342934533465347234ED
:1009900076346F346D346F3474346F347234203481
:1009A000323400342034203420342034283432349B
:1009B0002934203445344534503452344F344D3486
:1009C000203420340D3400340D340D34513475345A
:1009D00065342034763465346C346F346334693470
:1009E0006434613464343A3400340D340D34513499
:1009F0007534653420346434693472346534633456
:100A0000633469346F346E343A3400340D340D3449
:100A1000203428346234293449347A3471347534BA
:100A20006934653472346434613400340D340D3407
:100A300020342834613429344434653472346534C4
:100A400063346834613400340D340D342034283478
:100A5000613429344134723472346934623461341B
:100A600000340D340D3420342834613429344934B1
:100A70006C346534673461346C3400340D340D34B7
:100A80002034283463342934433465346E34743468
:100A900072346F3400340D340D3420342834613412
:100AA000293447347234613462346134723400342E
:100AB0000D340D3420342834633429344C346534F7
:100AC000673461346C3400340D340D3420342834F0
:100AD000623429344134623461346A346F3400340E
:100AE0000D340D34203428346234293450346134C8
:100AF00072346134723400340D340D3420342834AF
:100B0000623429344C3465346534723400340D3425
:100B10000D344134643469346F3473340D3400342B
:100B20000D340D34203428343334293444344334E0
:100B30000034831203130C1F9E2D9F2D0C2E1F0CAF
:100B4000F300730C0F39003A031DA72DA82DCD2DEE
:100B50001E08F3007308FD007D08F3000310730CFA
:100B60007D3E95007D080139F300F30EF30D170863
:100B70007306DF39730697007D08F3000730031012
:100B8000F30CFF3E031DBF2D7308F400F40E17088D
:100B90007406EF39740697000B2E1F0CF300730CCC
:100BA0000F39013A031DD52DD62DFB2D1E08F3005C
:100BB0007308FC007C08F3000310730C7D3E9B005F
:100BC0007C080139F300F30EF30D1D087306DF39BD
:100BD00073069D007C08F30007300310F30CFF3E02
:100BE000031DED2D7308F400F40E1D087406EF3993
:100BF00074069D000B2E1F0CF300730C0F39023A84
:100C0000031D032E042E0B2E1E08F300F40173089F
:100C1000AE007408AF000C130B1D0F2E102E382ED3
:100C20000130AC070318AD0A0030AD070B1183305B
:100C300081002D08803AF3002F08803A7302031DCB
:100C4000232E2E082C02031C262E272E2C2E831238
:100C5000031308108810302E83120313081488140D
:100C60002D032C04031D352E362E382EAC01AD017C
:100C70000B1C3B2E3C2EAD2E06183F2E402E632E15
:100C800086151030F3007308F0007D080A128A11EF
:100C9000D6270A128A111130F3007308F0007C087D
:100CA0000A128A11D6270A128A110B30F500263053
:100CB000F4005D30F300F30B5B2EF40B5B2EF50BB1
:100CC0005B2E622EAC2E8618662E672E9A2E1F1073
:100CD000061610300A128A1189230A128A11F300AB
:100CE0007308FB0011300A128A1189230A128A1133
:100CF000F3007308FA007B08F3000310730C7D3EC9
:100D00008312031395007A08F3000310730C7D3EE1
:100D10009B001A30F5005E30F4006E30F300F30BE8
:100D20008F2EF40B8F2EF50B8F2E000083120313E2
:100D30001F14AC2E06199D2E9E2EAA2E7808031D78
:100D4000A22EA32EA72E8616F801F80AAC2E861224
:100D5000F801AC2E861106120B1077088A00760E69
:100D60008300FE0E7E0E09000730831603178800ED
:100D70008901073083160313850007308600880138
:100D80000730960081130730950083120313850105
:100D900086018801831603130F178F160F160F1481
:100DA0008B170B178B168B150C17831203130C1351
:100DB0000B140B11831603138112011281110115FB
:100DC00081100114833083120313810083160313EF
:100DD0009F131F129F12831203131F083F3980387D
:100DE0009F00C3309F05843083120313A000A00B23
:100DF000F72E0000831203131F1484308312031391
:100E0000A000A00B012F0000831603130715871401
:100E1000FA3092003F308312031397051708F03918
:100E20000C3897001D08F0390C389D000F309500E4
:100E30000F309B00CF3097051D129D128C10033090
:100E4000920412158C1C252F262F222F8C1083160E
:100E50000313071187101812181583160317871527
:100E6000CF308316031399009A0183120313981746
:100E70001813181683160313981608000A128A11FD
:100E8000B4260A128A11831203139F147803031DD8
:100E90004A2F4B2F512F0A128A1120200A128A1131
:100EA000462F831203139F18562F572F462F1F0CC0
:100EB000AB002B0C0F39003A031D5F2F602F652FFD
:100EC0001F08C33904389F007E2F1F0CAB002B0C6A
:100ED0000F39013A031D6D2F6E2F732F1F08C33971
:100EE00008389F007E2F1F0CAB002B0C0F39023AE5
:100EF000031D7B2F7C2F7E2FC3309F0584308312F0
:100F00000313AB00AB0B822F0000831203139F145B
:100F1000462F0A128A110C28233083120313A300D0
:100F20002308A600992F27080A128A11F2270A120D
:100F30008A11831203132208A4002108A300A10A26
:100F40000319A20A2408FF00230884000A128A1148
:100F500077230A128A11A5002508A7002708031D78
:100F6000B22FB32F932F080083120313A100200880
:100F7000831203178D0083120313210883120317B2
:100F80008C008B13831603178C130C1555308D00B2
:100F9000AA308D008C14831203130D1ED02FD12F75
:100FA000CB2F0D12831603170C110800F1007008E7
:100FB000831203178D0071088C008B13831603179F
:100FC0008C130C1555308D00AA308D008C148312B3
:100FD00003130D1EEC2FED2FE72F0D1283160317B1
:100FE0000C11080083120313A0000C1EF82FF92F18
:080FF000F52F2008990008000C
:04400E00C420FF3F8C
:00000001FF
