:020000040000FA
:060000000A128A110C280F
:10000800FE00030EF6000A08F7000A128A111F28DC
:100018000A128A110F28F801F901FA01FB01FC0103
:10002800FD0183120313A001A101A201A301830111
:100038000A128A11A229831203130C1F24282528C7
:1000480092281F0CF300730C0F39003A031D2D285A
:100058002E2853281E08F3007308FD007D08F300BE
:100068000310730C7D3E95007D080139F300F30EF3
:10007800F30D17087306DF39730697007D08F30040
:1000880007300310F30CFF3E031D45287308F400E6
:10009800F40E17087406EF397406970091281F0CA0
:1000A800F300730C0F39013A031D5B285C28812883
:1000B8001E08F3007308FC007C08F3000310730C9F
:1000C8007D3E9B007C080139F300F30EF30D1D08FB
:1000D8007306DF3973069D007C08F30007300310B0
:1000E800F30CFF3E031D73287308F400F40E1D087B
:1000F8007406EF3974069D0091281F0CF300730CE9
:100108000F39023A031D89288A2891281E08F3000E
:10011800F4017308A2007408A3000C130B1D9528A2
:100128009628BE280130A0070318A10A0030A107AD
:100138000B11833081002108803AF3002308803AAC
:100148007302031DA92822082002031CAC28AD282D
:10015800B2288312031308108810B62883120313D9
:100168000814881421032004031DBB28BC28BE28BA
:10017800A001A1010B1CC128C22823290618C528E3
:10018800C628E92886151030F3007308F0007D08AA
:100198000A128A11E3210A128A111130F300730836
:1001A800F0007C080A128A11E3210A128A110B3026
:1001B800F5002630F4005D30F300F30BE128F40B72
:1001C800E128F50BE128E82822298618EC28ED28F3
:1001D80020291F10061610300A128A11FF210A1250
:1001E8008A11F3007308FB0011300A128A11FF21EB
:1001F8000A128A11F3007308FA007B08F30003104F
:10020800730C7D3E8312031395007A08F3000310E4
:10021800730C7D3E9B001A30F5005E30F4006E30A2
:10022800F300F30B1529F40B1529F50B152900001C
:10023800831203131F142229861106120B10770844
:100248008A00760E8300FE0E7E0E090007308316A4
:1002580003178800890107308316031385000330CC
:1002680086008801033096008113033095008312BD
:100278000313850186018801831603130F178F1650
:100288000F160F148B170B178B168B150C17831261
:1002980003130C130B140B11831603138112011291
:1002A8008111011581100114833083120313810019
:1002B800831603139F131F129F12831203131F0821
:1002C8003F3980389F00C3309F0584308312031361
:1002D800A400A40B6D290000831203131F1484309B
:1002E80083120313A400A40B7729000083160313B9
:1002F80007158714FA3092003F30831203139705CD
:100308001708F0390C3897001D08F0390C389D0093
:100318000F3095000F309B00CF3097051D129D12AE
:100328008C100330920412158C1C9B299C29982947
:100338008C10831603130711871008000A128A11FC
:100348002A210A128A11831203139F149F18AD29B8
:10035800AE29AA291F0CA500250C0F39003A031D48
:10036800B629B729BC291F08C33904389F00D529E5
:100378001F0CA500250C0F39013A031DC429C529F6
:10038800CA291F08C33908389F00D5291F0CA500A2
:10039800250C0F39023A031DD229D329D529C33098
:1003A8009F05843083120313A500A50BD9290000EB
:1003B800831203139F14AA290A128A110C28F10028
:1003C8007008831203178D0071088C008B13831635
:1003D80003178C130C1555308D00AA308D008C1422
:1003E800831203130D1EF929FA29F4290D12831615
:1003F80003170C110800F1007108831203178D0010
:10040800831603178C130C14831203170C08F000BF
:080418007008F20072080800F0
:04400E00C420FF3F8C
:00000001FF
