:020000040000FA
:060000000A128A110C280F
:10000800FE00030EF2000A08F3000A128A111728EC
:100018000A128A110F28F801F901FA01FB0183017C
:100028000A128A119628831203130C1F1C281D28F4
:1000380082281F0CF000700C0F39003A031D252888
:10004800262847281E08F0000310700C7D3E9500F6
:100058001E080139F000F00EF00D17087006DF39A0
:10006800700697001E08F00007300310F00CFF3EE2
:10007800031D39287008F100F10E17087106EF39D1
:100088007106970081281F0CF000700C0F39013A97
:10009800031D4F28502871281E08F0000310700C0B
:1000A8007D3E9B001E080139F000F00EF00D1D0882
:1000B8007006DF3970069D001E08F0000730031037
:1000C800F00CFF3E031D63287008F100F10E1D08B7
:1000D8007106EF3971069D0081281F0CF000700C25
:1000E8000F39023A031D79287A2881281E08F00062
:1000F800F1017008FA007108FB000C130B1D85282C
:1001080086288F280130F8070318F90A0030F90704
:100118000B118330810073088A00720E8300FE0E73
:100128007E0E09000A128A1113210A128A118312FB
:1001380003139F149F18A128A228D0281F0CF5008C
:10014800750C0F39003A031DAA28AB28B0281F08E0
:10015800C33904389F00C9281F0CF500750C0F39E6
:10016800013A031DB828B928BE281F08C339083822
:100178009F00C9281F0CF500750C0F39023A031DA2
:10018800C628C728C928C3309F058530F500F50B58
:10019800CB28831203139F147908803AF5007B0853
:1001A800803A7502031DDA287A087802031CDD28D4
:1001B800DE28E3288312031308108810E728831227
:1001C80003130814881479037804031DEC28ED2818
:1001D800EF28F801F9010630F7001330F600AD30CA
:1001E800F500F50BF528F60BF528F70BF528FC2894
:1001F8008312031385150630F7001330F600AD306F
:10020800F500F50B0529F60B0529F70B05290C292F
:100218008312031385119E280A128A110C280730AD
:100228008316031788008901073083160313850096
:1002380088018312031385018801831603130F179E
:100248008F160F160F148B170B178B160C1783129C
:1002580003130C130B11831603138112011281115E
:100268000115811001148330831203138100831652
:1002780003139F131F129F12831203131F083F3982
:1002880080389F00C3309F058530F400F40B4A295D
:10029800831203131F148530F400F40B51298316BD
:1002A800031307158714FA3092003F3083120313A3
:1002B80097051708F0390C3897001D08F0390C38E5
:1002C8009D000F3095000F309B00CF3097051D1211
:1002D8009D128C100330920412158C1C74297529F8
:0E02E80071298C10831603130711871008006C
:04400E00C420FF3F8C
:00000001FF
